:100000000C9464160C9495160C9495160C949516F5
:100010000C9495160C9495160C9495160C949516B4
:100020000C9495160C9495160C9495160C949516A4
:100030000C9495160C9495160C9495160C94951694
:100040000C9495160C9487710C9495160C94951637
:100050000C9495160C9495160C944C850C948CC4A9
:100060000C9495160C940C280C9495160C949516DB
:100070000C9495160C9495160C9495160C94951654
:100080000C9495160C9495160C9495160C94951644
:100090000C9495160C9495160C9495160C947EBDA4
:1000A0000C9495160C9495160C9495160C94951624
:1000B0000C9495160C9495160C9495160C94951614
:1000C0000C9495160C9495160C9495160C94951604
:1000D0000C9495160C9495160C9495160C949516F4
:1000E0000C949516A685B685D585E585008605868A
:1000F00008860D861086158618861D862786AFC54C
:10010000B4C5B9C5C3C5CDC546C6D7C5DFC5E7C5E6
:10011000F1C5FBC505C614C61EC646C628C632C6EE
:100120003CC667C66AC659C65DC663C6A1C66EC66A
:1001300072C678C67CC680C686C68AC68EC6A1C66A
:1001400094C698C69CC6084AD73B3BCE016E84BC79
:10015000BFFDC12F3D6C74319ABD56833DDA3D0021
:10016000C77F11BED9E4BB4C3E916BAAAABE00006A
:1001700000803F05A84CCDB2D44EB93836A9020C48
:1001800050B9918688083CA6AAAA2ABE0000008021
:100190003F004D383420582059205A2045004361F3
:1001A0006E6E6F7420656E7465722073756264691B
:1001B000723A20006175746F25692E67006572724E
:1001C0006F722077726974696E6720746F20666938
:1001D0006C65004E6F74205344207072696E7469B0
:1001E0006E67005344207072696E74696E67206296
:1001F000797465200044656C6574696F6E20666172
:10020000696C65642C2046696C653A200046696C0F
:10021000652064656C657465643A006F70656E2076
:100220006661696C65642C2046696C653A200057EC
:10023000726974696E6720746F2066696C653A2014
:10024000002E0A006F70656E206661696C65642C13
:100250002046696C653A20002E0A006F70656E209A
:100260006661696C65642C2046696C653A200046BD
:10027000696C652073656C656374656400205369FF
:100280007A653A200046696C65206F70656E65641A
:100290003A20006F70656E206661696C65642C2081
:1002A00046696C653A20004E6F7720667265736808
:1002B0002066696C653A20004E6F7720646F696E26
:1002C000672066696C653A20002220706F730022F7
:1002D00020706172656E743A2200535542524F5538
:1002E00054494E452043414C4C20746172676574FB
:1002F0003A22004B494C4C45442E200074727969D7
:100300006E6720746F2063616C6C207375622D675B
:10031000636F64652066696C657320776974682013
:10032000746F6F206D616E79206C6576656C732ECD
:10033000204D4158206C6576656C2069733A004DFC
:100340003234004D323320257300534420636172F0
:1003500064206F6B006F70656E526F6F7420666102
:10036000696C656400766F6C756D652E696E697475
:10037000206661696C656400534420696E6974206D
:100380006661696C0020204D3230302044300020FE
:10039000204D3230302044002044697361626C6526
:1003A000640046696C616D656E7420736574746970
:1003B0006E67733A00204C0020430020440020491F
:1003C0000020204D333031205000504944207365C7
:1003D0007474696E67733A00204600204200202042
:1003E0004D31343520533120480020460020420052
:1003F00020204D3134352053302048004D61746544
:100400007269616C206865617475702070617261D9
:100410006D65746572733A00205A002059002020DF
:100420004D323036205800486F6D65206F66667318
:10043000657420286D6D293A00204500205A00205F
:10044000580020420020540020204D3230352053E7
:1004500000416476616E63656420766172696162F1
:100460006C65733A20533D4D696E20666565647214
:1004700061746520286D6D2F73292C20543D4D69C2
:100480006E2074726176656C206665656472617455
:100490006520286D6D2F73292C20423D6D696E6992
:1004A0006D756D207365676D656E742074696D651B
:1004B00020286D73292C20583D6D6178696D756D0C
:1004C000205859206A65726B20286D6D2F73292C76
:1004D00020205A3D6D6178696D756D205A206A65DE
:1004E000726B20286D6D2F73292C2020453D6D6186
:1004F00078696D756D2045206A65726B20286D6D79
:100500002F73290020540020520020204D32303417
:10051000205000416363656C65726174696F6E732E
:100520003A20503D7072696E74696E672C20523D9E
:100530007265747261637420616E6420543D7472DC
:100540006176656C00204500205A0020590020206B
:100550004D3230312058004D6178696D756D204104
:100560006363656C65726174696F6E20286D6D2FB1
:100570007332293A00204500205A002059002020DB
:100580004D3230332058004D6178696D756D2066AD
:10059000656564726174657320286D6D2F73293AE7
:1005A00000204500205A0020590020204D393220DB
:1005B000580053746570732070657220756E69748D
:1005C0003A0048617264636F6465642044656661E3
:1005D000756C742053657474696E6773204C6F6119
:1005E000646564005072696E7465722068616C7431
:1005F00065642E206B696C6C28292063616C6C65C6
:100600006421004B494C4C45442E20004B494C4C36
:1006100045442E200020746F6F206C6F6E6720653C
:100620007874727573696F6E2070726576656E741A
:1006300065640020636F6C642065787472757369FB
:100640006F6E2070726576656E746564006F6B0006
:10065000526573656E643A20004F66667365747305
:10066000206170706C696564004572723A20546F45
:100670006F206661722100546F6F20666172206680
:10068000726F6D207265666572656E636520706F4E
:10069000696E740053657474696E67205472617674
:1006A000656C20416363656C65726174696F6E3A55
:1006B000200053657474696E6720526574726163BB
:1006C0007420416363656C65726174696F6E3A2072
:1006D0000053657474696E67205072696E742041AE
:1006E0006363656C65726174696F6E3A200053656F
:1006F0007474696E67205072696E7420616E642034
:1007000054726176656C20416363656C65726174D7
:10071000696F6E3A20004D31343520533C696E6468
:1007200065783E206F7574206F662072616E676514
:100730002028302D3129007A5F6D696E3A200079CA
:100740005F6D696E3A2000785F6D696E3A20002017
:100750005A3A0020593A0020436F756E7420583A77
:10076000200020453A00205A3A0020593A00583AD1
:10077000004649524D574152455F4E414D453A4D15
:1007800061726C696E20312E312E302D524336202D
:10079000284769746875622920534F555243455F55
:1007A000434F44455F55524C3A68747470733A2F06
:1007B0002F6769746875622E636F6D2F4D61726C5F
:1007C000696E4669726D776172652F4D61726C69F1
:1007D0006E2050524F544F434F4C5F564552534931
:1007E0004F4E3A312E30204D414348494E455F54DB
:1007F0005950453A54726F75626C656D616B6572E4
:100800002056322045585452554445525F434F5567
:100810004E543A3120555549443A63656465326116
:1008200032662D343161322D343734382D3962310E
:10083000322D6335356336326633363766660A00E5
:1008400054726F75626C656D616B657220563220F3
:100850004F66662E0054726F75626C656D616B65D4
:10086000722056322072656164792E0042656420E0
:10087000646F6E652E003F0020573A004265642089
:1008800048656174696E672E0048656174696E67BA
:1008900020646F6E652E003F0020573A0048656166
:1008A00074696E672E2E2E0054726F75626C656DC2
:1008B000616B65722056322072656164792E006F1B
:1008C0006B004D3131332053004B494C4C45442E85
:1008D00020004543484F00494E464F004552524F75
:1008E00052530044525952554E00434F4D4D554EB0
:1008F00049434154494F4E006F666600D208D708FD
:10090000DC08E308EA0844454255473A0048656177
:1009100074696E672E2E2E0054726F75626C656D51
:10092000616B65722056322072656164792E0025F4
:1009300069206D696E2C2025692073656300456E02
:10094000642066696C65206C697374004265676930
:100950006E2066696C65206C697374004E6F206D43
:100960006F76652E0054726F75626C656D616B6594
:10097000722056322072656164792E00526573755B
:100980006D696E67207072696E74005761697420BA
:10099000666F7220757365722E2E2E005445535467
:1009A000005761726E696E673A20486F6D696E67B5
:1009B0002042756D702044697669736F72203C2007
:1009C0003100536C6565702E2E2E0020403A0020B9
:1009D00042403A00202F0020423A00202F002054AD
:1009E0003A00627573793A207061757365642066A8
:1009F0006F7220696E70757400627573793A207039
:100A0000617573656420666F72207573657200622C
:100A10007573793A2070726F63657373696E6700DE
:100A2000220A00556E6B6E6F776E20636F6D6D617D
:100A30006E643A20220020496E76616C69642065FC
:100A4000787472756465722000256920686F75720C
:100A500073202569206D696E7574657300446F6E2F
:100A600065207072696E74696E672066696C6500D6
:100A70004B494C4C45442E200053544F5050454454
:100A80002E20005072696E7465722073746F7070DE
:100A900065642064756520746F206572726F72736F
:100AA0002E2046697820746865206572726F722006
:100AB000616E6420757365204D39393920746F205B
:100AC000726573746172742E202854656D7065723E
:100AD00061747572652069732072657365742E2068
:100AE0005365742069742061667465722072657341
:100AF00074617274696E6729004E6F204C696E656F
:100B0000204E756D62657220776974682063686530
:100B1000636B73756D2C204C617374204C696E652A
:100B20003A20004E6F20436865636B73756D2077C4
:100B3000697468206C696E65206E756D6265722CD3
:100B4000204C617374204C696E653A2000636865BF
:100B5000636B73756D206D69736D617463682C20B0
:100B60004C617374204C696E653A20004C696E6567
:100B7000204E756D626572206973206E6F74204C13
:100B8000617374204C696E65204E756D6265722BC1
:100B9000312C204C617374204C696E653A20004DF5
:100BA00031313000446F6E6520736176696E672065
:100BB00066696C652E004D3239002020506C616EE4
:100BC0006E657242756666657242797465733A2025
:100BD000002046726565204D656D6F72793A200080
:100BE0004D6179203132203230313600436F6D70E3
:100BF000696C65643A2000284D757374692C206413
:100C0000656661756C7420636F6E66696729002084
:100C10007C20417574686F723A2000323031362D75
:100C200030342D32342031323A303000204C617370
:100C30007420557064617465643A200020312E314F
:100C40002E302D524336004D61726C696E00205378
:100C50006F66747761726520526573657400205702
:100C600061746368646F6720526573657400204225
:100C7000726F776E206F75742052657365740020F3
:100C800045787465726E616C2052657365740050AE
:100C90006F7765725570007374617274002200651D
:100CA0006E7175657565696E67202200FFFFFF0034
:100CB00000A0400000A0400000004000009643005B
:100CC0000096430000964300000000000000000072
:100CD0000000000000964300009643000096430089
:100CE00000000000000000000000006563686F3A2B
:100CF000004572726F723A0020746F6F206C6F6ED5
:100D00006720657874727573696F6E20707265768E
:100D1000656E7465640020636F6C6420657874721E
:100D20007573696F6E2070726576656E74656400A8
:100D30007C3C3E5E2B3D3F2F5B5D3B2C2A225C00C2
:100D40004D383420582059205A204500456E647390
:100D5000746F70732025632025632025632025632D
:100D600000205A3A0020593A0020583A00656E6433
:100D700073746F7073206869743A200024F4D4305F
:100D800050C38E20C2A24017828B7011127A910D2F
:100D9000816CD90AA861E108C7586607615143060A
:100DA0001E4B5D05C145A7041A411104093D980376
:100DB000713931034036DB0265339102D43054027D
:100DC000802E1D02632CEE01752AC501B028A001FA
:100DD000102781018F2564012B244B01E02234016F
:100DE000AC211F018D200D01801FFC00841EED0031
:100DF000971DDF00B81CD200E61BC600201BBC00FC
:100E0000641AB200B219A8000A19A0006A18990061
:100E1000D117910040178B00B516840031167E0063
:100E2000B31579003A157300C7146F0058146A009F
:100E3000EE1366008813630025135E00C7125B0083
:100E40006C12570015125400C111510070114F005F
:100E500021114B00D61049008D1047004610440068
:100E600002104200C00F4000800F3E00420F3C00C5
:100E7000060F3B00CB0E3800930E37005C0E35009A
:100E8000270E3400F30D3200C10D3100900D3000FB
:100E9000600D2E00320D2D00050D2C00D90C2B00FD
:100EA000AE0C2900850C29005C0C2700350C2700AE
:100EB0000E0C2600E80B2400C40B2400A00B23001A
:100EC0007D0B23005A0B2100390B2100180B200049
:100ED000F80A1F00D90A1E00BB0A1E009D0A1D0049
:100EE000800A1D00630A1C00470A1B002C0A1B0015
:100EF000110A1A00F7091A00DD091900C4091900BE
:100F0000AB091900920917007B0918006309170043
:100F10004C09160036091600200916000A091500AA
:100F2000F5081500E0081400CC081400B8081400F7
:100F3000A4081400900813007D0812006B08130029
:100F40005808120046081200340811002308110046
:100F50001208110001081100F0071000E00710004E
:100F6000D0071000C0071000B0070F00A107100045
:100F700091070E0083070F0074070F0065070E002E
:100F800057070E0049070E003B070D002E070E0005
:100F900020070D0013070D0006070D00F9060C00D1
:100FA000ED060D00E0060C00D4060C00C8060C008F
:100FB000BC060C00B0060C00A4060B0099060C0041
:100FC0008D060B0082060B0077060B006C060B00EB
:100FD00061060A0057060B004C060A0042060A008A
:100FE00038060A002E060A0024060A001A060A001D
:100FF0001006090007060A00FD050900F4050900AE
:10100000EB050900E2050900D9050900D005090032
:10101000C7050900BE050900B5050800AD050800B3
:10102000A50509009C050800940508008C0508002A
:10103000840508007C050800740508006C0507009D
:10104000650508005D050700560508004E05070008
:10105000470507004005080038050700310507006F
:101060002A050700230507001C05060016050700D2
:101070000F0507000805060002050700FB0406002F
:10108000F5040700EE040600E8040600E204070089
:10109000DB040600D5040600CF040600C9040600E0
:1010A000C3040600BD040600B7040600B104050031
:1010B000AC040600A6040600A00405009B0406007C
:1010C00095040500900406008A04050085040500C7
:1010D000800406007A04050075040500700405000C
:1010E0006B04050066040500610405005C0405004E
:1010F00057040500520405004D040500480405008E
:10110000430405003E0404003A04050035040500CC
:10111000300404002C040500270404002304050007
:101120001E0404001A04040016040500110404003F
:101130000D04040009040500040404000004040074
:10114000FC030400F8030400F4030400F0030400AB
:10115000EC030400E8030400E4030400E0030400DB
:10116000DC030400D8030400D4030400D00304000B
:10117000CC030400C8030300C503030024F404D90E
:10118000201BC40C5C0E9804C4095F026507710142
:10119000F405F900FB04B30048048700C1036900AB
:1011A0005803550003034500BE023A008402310093
:1011B00053022A002902250004022000E4011C0039
:1011C000C8011900AF011700980114008401130031
:1011D000710110006101100051010E0043010D006A
:1011E00036010B002B010B0020010B00150109003B
:1011F0000C01090003010800FB000800F3000800CF
:10120000EB000700E4000600DE000600D800060040
:10121000D2000600CC000500C7000500C200050092
:10122000BD000400B9000400B5000400B1000400D2
:10123000AD000400A9000400A5000300A200030003
:101240009F0004009B00030098000300950002002B
:1012500093000300900003008D0002008B00030048
:101260008800020086000200840003008100020062
:101270007F0002007D0002007B0002007900020076
:101280007700010076000200740002007200010085
:10129000710002006F0002006D0001006C0002008E
:1012A0006A00010069000200670001006600010099
:1012B000650001006400020062000100610001009D
:1012C000600001005F0002005D0001005C000100A1
:1012D0005B0001005A0001005900010058000100A4
:1012E00057000100560001005500010054000100A4
:1012F00053000000530001005200010051000100A2
:10130000500001004F0001004E0000004E0001009F
:101310004D0001004C0001004B0000004B0001009B
:101320004A00010049000100480000004800010097
:101330004700010046000000460001004500000093
:10134000450001004400010043000000430001008B
:101350004200000042000100410000004100010085
:10136000400001003F0000003F0001003E0000007F
:101370003E0001003D0000003D0001003C00000077
:101380003C0000003C0001003B0000003B0001006D
:101390003A0000003A000100390000003900010065
:1013A000380000003800000038000100370000005D
:1013B0003700010036000000360000003600010052
:1013C0003500000035000000350001003400000049
:1013D000340000003400010033000000330000003E
:1013E0003300010032000000320000003200010032
:1013F0003100000031000000310001003000000029
:1014000030000000300001002F0000002F0000001D
:101410002F0000002F0001002E0000002E00000011
:101420002E0001002D0000002D0000002D00000006
:101430002D0001002C0000002C0000002C000000FA
:101440002C0001002B0000002B0000002B000000EE
:101450002B0001002A0000002A0000002A000000E2
:101460002A000100290000002900000029000000D6
:1014700029000000290001002800000028000000C9
:1014800028000000280000002800010027000000BC
:1014900027000000270000002700000027000100AF
:1014A00026000000260000002600000026000000A4
:1014B0002600010025000000250000002500000096
:1014C0002500000025000000250001002400000088
:1014D000240000002400000024000000240001007B
:1014E0002300000023000000230000002300000070
:1014F0002300000023000000230001002200000060
:101500002200000022000000220000002200000053
:101510002200010021000000210000002100000045
:101520002100000021000000210000002100010036
:10153000200000002000000020000000200000002B
:10154000200000002000000020000000200001001A
:101550001F0000001F0000001F0000001F0000000F
:101560001F0000001F0000001F0001001E000000FF
:101570001E0000001E0000001E0000004D494E54D9
:10158000454D5020747269676765726564004572E5
:10159000723A204D494E54454D5020424544004D2D
:1015A000415854454D50207472696767657265648F
:1015B000004572723A204D415854454D50204245E5
:1015C0004400546865726D616C2052756E6177617C
:1015D0007900544845524D414C2052554E41574197
:1015E000590048656174696E67206661696C65645D
:1015F0000048656174696E67206661696C656400A6
:101600004D494E54454D5020747269676765726547
:1016100064004572723A204D494E54454D50006267
:101620006564002C2073797374656D2073746F701A
:1016300070656421204865617465725F49443A2091
:10164000004D415854454D5020747269676765726A
:101650006564004572723A204D415854454D500022
:1016600023646566696E65202044454641554C54A7
:101670005F4B64200023646566696E6520204445E5
:101680004641554C545F4B69200023646566696E82
:1016900065202044454641554C545F4B7020005016
:1016A0004944204175746F74756E652066696E6972
:1016B00073686564212050757420746865206C61BE
:1016C0007374204B702C204B6920616E64204B6436
:1016D00020636F6E7374616E74732066726F6D2019
:1016E00062656C6F7720696E746F20436F6E6669F8
:1016F0006775726174696F6E2E68005049442041AD
:1017000075746F74756E65206661696C65642120FF
:1017100074696D656F757400504944204175746F2C
:1017200074756E65206661696C6564212054656D11
:10173000706572617475726520746F6F2068696777
:101740006800204B643A2000204B693A2000204B6F
:10175000703A200020436C617373696320504944E0
:1017600020002054753A2000204B753A2000206D4F
:1017700061783A2000206D696E3A200020643A209A
:101780000020626961733A20001000AA03F0013A58
:10179000019002220130031001D00302017004F70E
:1017A000001005ED00B005E5005006DD00F006D79D
:1017B000009007D1003008CC00D008C7007009C3E2
:1017C00000100ABE00B00ABB00500BB700F00BB30C
:1017D00000900CB000D00DAA00100FA5005010A072
:1017E0000090119B00D0129600B014900090168BC0
:1017F0000070188500501A8000301C7B00B01E75E8
:101800000030216F00B02369003026640010285F8B
:1018100000902A5A00702C5500F02E4F007031486D
:1018200000B0324500F033410070363900103737D0
:10183000005038330090392D00D03A2700B03C1CBE
:1018400000503D1700F03D1100903E0900D03FE5EB
:10185000FF1000C90210012C014001220170011883
:1018600001B0010E01F00104015002FA00B002F0D3
:10187000003003E600D003DC009004D2007005C8FD
:1018800000A006BE000008B400B009AA00D00BA05A
:1018900000600E960060118C0000158200201978FF
:1018A00000C01D6E00A0226400B0275A00902C508A
:1018B0000000314600E0343C0010383200903A28F5
:1018C00000603C1E00A03D1400803E0A00203F0046
:1018D00000436172642072656D6F766564004361D8
:1018E000726420696E736572746564004D343238B9
:1018F0000020003F000920005A0059005800466CA3
:101900006F7700466C6F770046616E207370656577
:101910006420320046616E20737065656420320079
:1019200046616E20737065656420310046616E20EB
:10193000737065656420310042656400426564002F
:101940004E6F7A7A6C65004E6F7A7A6C65005370D0
:10195000656564005370656564004D61696E004D96
:101960006F76652058004D6F76652059004D6F7673
:1019700065205A0045787472756465720045787404
:101980007275646572004D6F7665205A004D6F76F2
:10199000652059004D6F76652058004D6F766520A3
:1019A00061786973004D6F766520302E316D6D0062
:1019B0004D6F766520316D6D004D6F76652031304D
:1019C0006D6D00507265706172650050726568657A
:1019D000617420504C412042656400507265686516
:1019E000617420504C410050726570617265005006
:1019F00072656865617420414253204265640050FD
:101A0000726568656174204142530050726570616F
:101A10007265004D38300053776974636820706FC9
:101A2000776572206F6E004D3831005377697463AB
:101A30006820706F776572206F666600436F6F6C09
:101A4000646F776E0050726568656174204142531F
:101A5000005072656865617420504C41004D383407
:101A60000044697361626C6520737465707065729F
:101A700073004D6F7665206178697300536574203B
:101A8000686F6D65206F66667365747300473238E2
:101A9000004175746F20686F6D65004D61696E005F
:101AA00042656400426564004E6F7A7A6C65004E50
:101AB0006F7A7A6C650046616E20737065656400AC
:101AC00046616E2073706565640054656D70657263
:101AD00061747572650042656400426564004E6F12
:101AE0007A7A6C65004E6F7A7A6C650046616E207A
:101AF00073706565640046616E207370656564008F
:101B000054656D70657261747572650050726568B8
:101B10006561742041425320636F6E6600507265A8
:101B20006865617420504C4120636F6E66005049B7
:101B3000442D43005049442D43005049442D440056
:101B40005049442D44005049442D49005049442DEA
:101B500049005049442D50005049442D5000200860
:101B600020466163740020082046616374002008E9
:101B7000204D6178002008204D6178002008204D1C
:101B8000696E002008204D696E004175746F7465A0
:101B90006D70004F6666004F6E200046616E2073C8
:101BA0007065656420320046616E207370656564FF
:101BB00020320046616E20737065656420310046F6
:101BC000616E207370656564203100426564004277
:101BD0006564004E6F7A7A6C65004E6F7A7A6C6538
:101BE00000436F6E74726F6C004573746570732F71
:101BF0006D6D004573746570732F6D6D005A73744D
:101C00006570732F6D6D005A73746570732F6D6DF1
:101C1000005973746570732F6D6D0059737465701E
:101C2000732F6D6D005873746570732F6D6D005850
:101C300073746570732F6D6D00412D7472617665DC
:101C40006C00412D74726176656C00412D72657473
:101C50007261637400412D72657472616374004136
:101C60006D6178204500416D6178204500416D61CE
:101C700078205A00416D6178205A00416D617820CA
:101C80005900416D6178205900416D6178205800FC
:101C9000416D61782058005654726176206D696EEE
:101CA000005654726176206D696E00566D696E0043
:101CB000566D696E00566D6178204500566D6178ED
:101CC000204500566D6178205A00566D6178205A83
:101CD00000566D6178205900566D61782059005684
:101CE0006D6178205800566D617820580056652D3A
:101CF0006A65726B0056652D6A65726B00567A2DA7
:101D00006A65726B00567A2D6A65726B0056787937
:101D10002D6A65726B005678792D6A65726B004189
:101D20006363656C00416363656C00436F6E74723E
:101D30006F6C0046696C2E204469612E0046696C08
:101D40002E204469612E004520696E206D6D3300A0
:101D50004F6666004F6E2000436F6E74726F6C00AA
:101D6000526573746F7265206661696C7361666534
:101D70000046696C616D656E74004D6F74696F6EBD
:101D80000054656D7065726174757265004D6169AE
:101D90006E00022E2E004D61696E004E6F2053447E
:101DA0002063617264005072696E742066726F6D98
:101DB0002053440053746F70207072696E74005227
:101DC0006573756D65207072696E7400506175730E
:101DD00065207072696E7400436F6E74726F6C0070
:101DE000507265706172650054756E6500496E666B
:101DF0006F2073637265656E0000060900FE0701BF
:101E000092032120FFFF08FF07FF000000060000EB
:101E100001070706020080808080800080030202A4
:101E2000060105A0A00507070600005050F850F86D
:101E300050500507070600002078A07028F0200504
:101E40000707060000C0C8102040981805070706BD
:101E500000006090A040A89068020303060104C03F
:101E60004080030707060100204080808040200357
:101E70000707060100804020202040800505050658
:101E8000000120A870A8200505050600012020F803
:101E900020200203030602FFC04080050101060066
:101EA00003F8020202060200C0C005050506000193
:101EB0000810204080050707060000708888888881
:101EC000887003070706010040C040404040E0051D
:101ED0000707060000708808708080F8050707066D
:101EE0000000F81020100808F00507070600001091
:101EF000305090F81010050707060000F880F00831
:101F0000088870050707060000708080F0888870D8
:101F1000050707060000F808102020202005070705
:101F20000600007088887088887005070706000022
:101F300070888878080870020505060200C0C00095
:101F4000C0C00206060602FFC0C000C040800407F1
:101F50000706000010204080402010050303060003
:101F600002F800F804070706010080402010204016
:101F7000800507070600007088081020002005076C
:101F80000706000070880868A8A870050707060003
:101F900000708888F8888888050707060000F088A0
:101FA00088F08888F0050707060000708880808028
:101FB0008870050707060000F08888888888F00583
:101FC0000707060000F88080F08080F80507070604
:101FD0000000F88080F08080800507070600007010
:101FE0008880B8888870050707060000888888F808
:101FF00088888801070706020080808080808080B2
:10200000050707060000381010101090600507073C
:102010000600008890A0C0A0908805070706000071
:10202000808080808080F805070706000088D8A897
:10203000888888880507070600008888C8A89888C7
:10204000880507070600007088888888887005075B
:1020500007060000F08888F08080800507070600EA
:102060000070888888A89068050707060000F08837
:1020700088F0A09088050707060000788080700827
:1020800008F0050707060000F82020202020200582
:102090000707060000888888888888700507070673
:1020A0000000888888888850200507070600008877
:1020B00088888888A850050707060000888850206F
:1020C000508888050707060000888888502020204F
:1020D000050707060000F80810204080F8030707EE
:1020E000060100E08080808080E005050506000193
:1020F0008040201008030707060100E02020202070
:1021000020E00503030600042050880501010600B5
:1021100000F80202020602058040050505060000DF
:1021200070087888780507070600008080B0C888A6
:1021300088F0050505060000708080887005070797
:1021400006000008086898888878050505060000DC
:102150007088F880700507070600003048E04040AE
:1021600040400506060600FF70888878087005075D
:10217000070600008080B0C888888801070706022B
:1021800000800080808080800308080601FF200016
:1021900020202020A040040707060000808090A097
:1021A000C0A090030707060100C04040404040E047
:1021B000050505060000D0A8A8A8A8050505060085
:1021C00000B0C888888805050506000070888888E2
:1021D000700506060600FFF08888F0808005060678
:1021E0000600FF788888780808050505060000B015
:1021F000C880808005050506000070807008F00426
:1022000007070600004040E0404040300505050655
:102210000000888888986805050506000088888879
:1022200050200505050600008888A8A8500505056A
:1022300006000088502050880506060600FF8888A2
:1022400088780870050505060000F8102040F8039E
:102250000707060100204040804040200107070694
:102260000200808080808080800307070601008054
:1022700040402040408005020206000268900000B5
:10228000000600000000000600000000000600003C
:10229000000000060000000000060000000000062C
:1022A0000000000000060000000000060000000022
:1022B000000600000000000600000000000600000C
:1022C00000000006000000000006000000000006FC
:1022D00000000000000600000000000600000000F2
:1022E00000060000000000060000000000060000DC
:1022F00000000006000000000006000000000006CC
:1023000000000000000600000000000600000000C1
:1023100000060000000000060000000000060000AB
:10232000000000060000000000060000000000069B
:102330000000000000060000000000060000000091
:10234000000600000000000600000107070602006A
:10235000800080808080800507070600002070A82C
:10236000A0A87020050707060000304040E040505C
:10237000A805050506000088705070880507070647
:102380000000885020F820F820010707060200808E
:1023900080800080808005080806000030482050BA
:1023A00050209060030101060107A0050707060001
:1023B00000F888B8B8B888F8050707060001700863
:1023C00078887800F80505050600012850A05028F7
:1023D000050303060001F80808020202060206408F
:1023E00080050707060000F888A88898A8F8050166
:1023F00001060006F80404040600036090906005DE
:1024000007070600002020F8202000F80405050634
:10241000000360902040F0030505060003E020E083
:1024200020E002020206020640800508080600FFBE
:102430008888888898E880800507070600007898D3
:102440009878181818020202060202C0C00202029E
:102450000602FF408003050506000340C04040E03F
:10246000050707060001708888887000F8050505D3
:10247000060001A0502850A005070706000088901C
:10248000A858B808080507070600008890B84898BB
:102490002038050808060000C040C048D8380808A1
:1024A0000507070600002000204080887005080806
:1024B0000600004020007088F8888805080806009B
:1024C000001020007088F8888805080806000020A1
:1024D00050007088F8888805080806000068900099
:1024E0007088F88888050808060000500070888801
:1024F000F888880508080600002050207088F888B1
:10250000880507070600003860A0B8E0A0B80508F5
:10251000080600FF70888080887020600508080623
:102520000000402000F880F080F805080806000050
:10253000081000F880F080F8050808060000205018
:1025400000F880F080F80507070600005000F880CA
:10255000F080F8030808060100804000E040404099
:10256000E0030808060100204000E0404040E0038E
:10257000080806010040A000E0404040E0030707D3
:10258000060100A000E0404040E00507070600000B
:10259000704848E848487005080806000068900040
:1025A00088C8A89888050808060000402070888818
:1025B00088887005080806000010207088888888C0
:1025C0007005080806000020500070888888700593
:1025D0000808060000689000708888887005080860
:1025E0000600005000708888888870050505060080
:1025F0000188502050880508080600FF1070A8A820
:10260000A8A870400508080600004020888888882F
:10261000887005080806000010208888888888705F
:102620000508080600002050008888888870050882
:102630000806000050008888888888700508080609
:10264000000010208850202020200509090600FFE6
:10265000C040704848704040E00408080601FF6030
:102660009090A09090E080050808060000402000AF
:1026700070087888780508080600001020007008A7
:1026800078887805080806000020500070087888CF
:1026900078050808060000689000700878887805BA
:1026A00007070600005000700878887805080806BB
:1026B0000000205020700878887805060606000083
:1026C000D02878A0A8500506060600FF7080887004
:1026D00020600508080600004020007088F880701F
:1026E0000508080600001020007088F880700508B2
:1026F000080600002050007088F880700507070663
:10270000000050007088F8807003080806010080FF
:10271000400040C04040E00308080601002040009F
:1027200040C04040E003080806010040A00040C04F
:102730004040E0030707060100A00040C04040E021
:10274000050707060000A040A0107888700508085B
:10275000060000689000B0C8888888050808060050
:102760000040200070888888700508080600001066
:102770002000708888887005080806000020500036
:1027800070888888700508080600006890007088C6
:1027900088887005070706000050007088888870D8
:1027A0000505050600012000F800200507070600C2
:1027B000FF1070A8A8A87040050808060000402077
:1027C000008888889868050808060000102000889E
:1027D00088889868050808060000205000888888C6
:1027E00098680507070600005000888888986805E3
:1027F00009090600FF102000888888F8087004077F
:10280000070601FFC04060506040E0050808060070
:10281000FF500088888878087000060900FE0000D4
:1028200000000001090008FE00000508080600007D
:1028300040F0C88888987810050808060000C0F89D
:102840008888888888F80505050600012030F8305A
:10285000200508080600002070F820202020E00550
:1028600009090600FF2070A8A8B88888702005090B
:10287000090600FFE080C0B0A82830282805090913
:102880000600FFF8A88888888888A8F8050A0A063C
:1028900000FE205050505088A8A8887003030306FB
:1028A000000340A040000000000000000000000005
:1028B000007FFFE0000000000000000000000000BA
:1028C0007000E00000000000000000000000006157
:1028D000F86000000000000000000000000041F867
:1028E0002000000000000000000000000040F02078
:1028F0000000000000000000000000004060200018
:1029000000000000000000000000005801A07F80CF
:10291000000000000000004104005C63A0FFC00054
:102920000000000000002082005EF7A0FFC0000051
:1029300000000000002082005EF7A0FFC000000041
:10294000000000004104005C63A07F8000000000E4
:102950000000008208005801A07F800000000000F5
:102960000001041000406020FFC0000000000000D3
:102970000104100040F020FFC00000000000000033
:1029800082080041F820FFC0000000000000004164
:10299000040061F8603F000000000000000000003B
:1029A000007000E01E0000000000000001FFFF803A
:1029B0007FFFE00C0000000000000001FFFF80002E
:1029C00000000000000000000000000000007FFF89
:1029D000E00000000000000000000000007000E0C7
:1029E000000000000000000000000000630C600018
:1029F0000000000000000000000000470E20000062
:102A0000000000000000000000004F0F2000000048
:102A10000000000000000000005F0FA000000000A8
:102A200000000000000000005E07A07F80000000A2
:102A300000000000410400406020FFC000000000D2
:102A400000000020820040F020FFC00000000000D5
:102A5000000020820040F020FFC0000000000000C5
:102A6000004104004060207F800000000000000062
:102A70008208005E07A07F800000000000000104C3
:102A800010005F0FA0FFC000000000000001041054
:102A9000004F0F20FFC0000000000000008208006F
:102AA000470E20FFC000000000000000410400634A
:102AB0000C603F00000000000000000000007000FB
:102AC000E01E0000000000000001FFFF807FFFE02B
:102AD0000C0000000000000001FFFF800000001F4C
:102AE000FFFFFFFFFFFF600000000001FF4000004C
:102AF000000000FF8000000000007F83CF00000C7A
:102B0000303F87FF80000C301F867980000C000F5B
:102B10008C30C7838C30E78C30CFC7CC31F38C300E
:102B2000DCECEC33B98C30D86C6C33198C30D06C55
:102B30000C33198C30D86C0C33198C30DC6C0E3B98
:102B4000198C30CF7C079F198C30C77C038F1940BC
:102B5000000000000002600000000000061FFFFFF0
:102B6000FFFFFFF800000A0B02090C0D0E08070317
:102B70000401000000000000000000000000000050
:102B80000000000000000000000000000000000045
:102B90001211100000000000000000000000000002
:102BA00000000000000000000000010210202008CA
:102BB0000810204010204080020102010804020198
:102BC0000102040810204080804020100804020107
:102BD0008004020180402010080402010804020160
:102BE00001020408102040800102040810204080E7
:102BF00005050505070508080808020202020A0A79
:102C00000808040404040101010101010101030396
:102C1000030303030303040707070C0C0C0C0C0C41
:102C20000C0C0202020206060606060606060B0B3E
:102C30000B0B0B0B0B0B00002000230026002900C0
:102C40002C002F00320000010000030106010901E1
:102C500000002200250028002B002E003100340047
:102C600002010000050108010B0100002100240001
:102C700027002A002D00300033000101000004016C
:102C800007010A014E414E494E495459494E46CD1D
:102C9000CCCC3D0AD7233C17B7D13877CC2B329513
:102CA00095E6241FB14F0A000020410000C84200F1
:102CB000401C4620BCBE4CCA1B0E5AAEC59D7400BB
:102CC000414FACBC52BD494F11241FBECFEFD1E2E2
:102CD000DEBFCDBF00E00CBF14E0A0E0B2E0E4E74F
:102CE000F5EA01E00BBF02C007900D92A634B107D0
:102CF000D9F726E1A6E4B4E001C01D92AD3CB207CD
:102D0000E1F71CE2C6ECDCE200E006C02297010914
:102D1000FE010BBF0E948ACCC03CD10780E00807AF
:102D2000A9F70E9439C70C94A9D20C940000452B36
:102D3000C1F020910A01206220930A013FB7F89464
:102D400020910B01206220930B013FBF0E9405C51B
:102D50009FB7F89480910B018F7D80930B019FBFEB
:102D600008950C9405C5FC01148217821382128207
:102D70008AEA93E09183808308952AEA33E0FC0194
:102D8000318320832781222319F004960C94526604
:102D90000895CF92DF92EF92FF920F931F93CF93FC
:102DA000DF93EC018F96DFDFCE01805B9F4FDBDF8F
:102DB0007E012FE6E20EF11C87016E013BE5C31A8E
:102DC0003EEFD30AC801CFDF015E1F4F0C151D0572
:102DD000C9F7FE01EA55FE4F89E1818314823596D9
:102DE000178ACE0187539E4FBEDFFE01E658FD4F86
:102DF0001082118212821382349610821182128202
:102E000013821A821B8218821982F8011082FE0135
:102E1000E851FE4F108286E391E0F7019C01119288
:102E200021503040E1F7FE01EA57FD4F81E08083F9
:102E30001EA61DA60E94D6C4CE57DD4F68577C4EF5
:102E40008F4F9F4F688379838A839B83DF91CF91D4
:102E50001F910F91FF90EF90DF90CF900895FC01AC
:102E600020E03EE2DB014C91403241F0283011F489
:102E700030833196DB014C91408331962F5F6F5F39
:102E80007F4F2B3079F7108208952F923F924F9207
:102E90005F926F927F928F929F92AF92BF92CF92EA
:102EA000DF92EF92FF920F931F93CF93DF93CDB7F3
:102EB000DEB7C657D1090FB6F894DEBF0FBECDBF3F
:102EC0008C016B015A0129012DB73EB7E3963FAF44
:102ED0002EAFE397AD961FAEAD9734E0A30EB11CB5
:102EE0004296E5969FAF8EAFE597180199E7291AAC
:102EF0009DEF390AF801E757FD4FAF96FFAFEEAFF0
:102F0000AF973801F5E06F0E711C7E012FE5E20EE0
:102F1000F11C80E490E08C0F9D1F0496E7969FAF14
:102F20008EAFE797E5964EAD5FADE597BE016F5F5B
:102F30007F4FC5010E94B86418160CF041C12C8562
:102F4000322F3871303109F0BCC0F101808191819C
:102F50000197029708F4B5C02DB73EB7E1963FAF91
:102F60002EAFE197BE016F5F7F4FC70178DF81E031
:102F7000F601908191119DC0E1E0F0E0D7010D9044
:102F80000020E9F7EE19FF09EA0FFB1F31962DB774
:102F90003EB72E1B3F0B0FB6F8943EBF0FBE2DBFA2
:102FA000EDB7FEB731964F01882319F067EE72E056
:102FB00001C0B601C4010E94C0CFB701C4010E9484
:102FC000A1CF67EE72E0C4010E94A1CFCE01805C68
:102FD0009F4FC9DE21E0A701B501E7968EAD9FADF9
:102FE000E7970E944968811137C0F1018081918182
:102FF000892B91F5EBEEFCE08491882341F09091D0
:10300000C00095FFFCCF8093C6003196F5CFE9EE66
:10301000F2E08191882339F09091C00095FFFCCFB8
:103020008093C600F6CF8091C00085FFFCCF8AE078
:103030008093C600F7018191882339F09091C000F8
:1030400095FFFCCF8093C600F6CF8091C00085FF2E
:10305000FCCF8AE08093C6008BE1FE01EC5BFF4F62
:10306000DE01959601900D928A95E1F724968EAD3A
:103070009FAD24979CA38BA38AEA93E09AA389A38C
:1030800020E030E0AE014F5D5F4FB401C801FDDECE
:10309000CE01819672DECE01805C9F4F6EDEE1969E
:1030A0002EAD3FADE1970FB6F8943EBF0FBE2DBFDA
:1030B00039CF80E001900020E9F73197EC19FD0944
:1030C0005DCF8981882309F47BC0853E09F42ACF2E
:1030D0008E3209F427CFF80182898E3209F422CF8B
:1030E00023FD20CF81E0303109F080E0F8018483B6
:1030F000811108C08985873409F014CF8A858E37FD
:1031000009F410CFF101808191818130910569F03E
:103110008230910581F1892B09F004CFBE016F5FE8
:103120007F4FC3019CDEF60110C0AF96EEADFFAD40
:10313000AF9780819181019691838083F3CE9091A6
:10314000C00095FFFCCF8093C60081918111F7CF1D
:10315000F3018191882339F09091C00095FFFCCF55
:103160008093C600F6CF8091C00085FFFCCF8AE037
:103170008093C600D7CEBE016F5F7F4FC3016FDE65
:103180004114510439F0B301C2010E948ECF892B42
:1031900079F416C0AD96FFADAD972F2F30E0AF9606
:1031A000EEADFFADAF97808191812817390741F0CF
:1031B000AD96FFADAD97FF5FAD96FFAFAD97B2CEC9
:1031C000E3962EAD3FADE3970FB6F8943EBF0FBE2A
:1031D0002DBFCA58DF4F0FB6F894DEBF0FBECDBF6C
:1031E000DF91CF911F910F91FF90EF90DF90CF90E3
:1031F000BF90AF909F908F907F906F905F904F9017
:103200003F902F900895EF92FF920F931F93CF93CB
:10321000DF93CDB7DEB76F970FB6F894DEBF0FBE62
:10322000CDBF8C01FC01E957FD4F118210827C015A
:1032300083E3E80EF11C40E050E0BA01C7010E94B0
:103240006F658BE1F701DE01159601900D928A956D
:10325000E1F7F80181A992A99C838B838AEA93E024
:103260009A83898320E030E0AE014F5F5F4F61ECCD
:1032700073E0C8010ADECE0101967FDD6F960FB6BE
:10328000F894DEBF0FBECDBFDF91CF911F910F919C
:10329000FF90EF900895EF92FF920F931F93CF93BB
:1032A000DF93EC011B828EA9882321F0CE01C39607
:1032B0000E9452667E018AE5E81A8EEFF80A45E31D
:1032C00060E0C7010E94CF6081111FC0EBEEFCE0FF
:1032D0008491882341F09091C00095FFFCCF8093AA
:1032E000C6003196F5CFE8E7F3E08491882341F0FA
:1032F0009091C00095FFFCCF8093C6003196F5CF2A
:103300008091C00085FFFCCF76C08E0105551E4F11
:1033100041E0B701C8010E94536E811126C040E010
:10332000B701C8010E94536E81111FC0E1EFFCE09C
:103330008491882341F09091C00095FFFCCF809349
:10334000C6003196F5CFE5E6F3E08491882341F09D
:103350009091C00095FFFCCF8093C6003196F5CFC9
:103360008091C00085FFFCCF46C0B801CE01C39656
:103370000E945C6381111FC0E1EFFCE0849188230F
:1033800041F09091C00095FFFCCF8093C60031962C
:10339000F5CFE5E5F3E08491882341F09091C000FA
:1033A00095FFFCCF8093C6003196F5CF8091C00089
:1033B00085FFFCCF20C081E08B83EBEEFCE08491A5
:1033C000882341F09091C00095FFFCCF8093C60008
:1033D0003196F5CFEAE4F3E08491882341F09091AF
:1033E000C00095FFFCCF8093C6003196F5CF809149
:1033F000C00085FFFCCF8AE08093C600CE01805BD1
:103400009F4F2BE1FE01F396DC01149601900D9283
:103410002A95E1F729A93AA9FC013383228332973F
:10342000AF96D183C083DF91CF911F910F91FF9011
:10343000EF900895FC01128213820895CF92DF92DB
:10344000EF92FF920F931F93CF93DF93CDB7DEB729
:10345000CDB6DEB6FB0101900020E9F7E61BF70BC5
:1034600034968DB79EB78E1B9F0B0FB6F8949EBFF8
:103470000FBE8DBF0DB71EB70F5F1F4F7F936F93AA
:1034800083E493E09F938F931F930F930E94E4CF65
:10349000780194E0E90EF11C0F900F900F900F90BF
:1034A0000F900F90F7018081882349F0992787FDBD
:1034B00090950E942FCFF70181937F01F3CF60E0B9
:1034C000C8010E94E52A8FE393E00E948A2B0FB681
:1034D000F894DEBE0FBECDBEDF91CF911F910F914C
:1034E000FF90EF90DF90CF900895FC01238122237D
:1034F00011F021E022830895FC0122812111128222
:103500000895AF92BF92CF92DF92EF92FF920F9306
:103510001F93CF93DF931F92CDB7DEB78C018FE25D
:10352000FB0181935F01D12C21E07801FBE5EF1ACB
:10353000FEEFFF0A8FE1C82EF7018081D816C8F48C
:10354000B501C801CD9C800D911D11248D589F4F50
:1035500029830E940363C50129815C010196F5015D
:103560003081332321F02D3810F42F5FF6CFD39420
:10357000E3CF27FD11C0B501C80183539E4F0F90C3
:10358000DF91CF911F910F91FF90EF90DF90CF903F
:10359000BF90AF900C940363F50110820F90DF9100
:1035A000CF911F910F91FF90EF90DF90CF90BF9040
:1035B000AF9008953F924F925F926F927F928F9259
:1035C0009F92AF92BF92CF92DF92EF92FF920F93B2
:1035D0001F93CF93DF93CDB7DEB7AC970FB6F894B8
:1035E000DEBF0FBECDBF7C015B01FC018381882360
:1035F00009F4EDC0C70183539E4F0E945266F70144
:103600001282CE0101966C01AEDB27019EE4490EC9
:10361000511CC7018F96F20191838083F50180814F
:103620008F3209F077C06FE270E0C5010E94ACCF25
:103630008C010F5F1F4F9AE0392E0115110509F417
:103640006FC06FE270E0C8010E94ACCF4C010097E0
:1036500009F467C00817190708F063C03C01601A35
:10366000710AA301B801CE0180960E94D5CFE0E295
:10367000F0E0EC0FFD1FE60DF71D1082FE01B09685
:103680008191882339F09091C00095FFFCCF809301
:10369000C600F6CF8091C00085FFFCCF3092C600F7
:1036A000F201608171816115710519F06C5F7F4FC6
:1036B00002C060E070E021E0AE01405E5F4FCE01ED
:1036C00005960E94496881111EC0EBE1F2E08491E9
:1036D000882341F09091C00095FFFCCF8093C600F5
:1036E0003196F5CFFE01B0968191882339F0909103
:1036F000C00095FFFCCF8093C600F6CF8091C0003C
:1037000085FFFCCF5FC0F201D182C08284010F5FD0
:103710001F4F93CFC701805B9F4FF201918380833E
:103720008501F20180819181009711F0049602C019
:1037300080E090E0B8010E941F69811103C0E5EFAD
:10374000F1E02EC0EDE0F2E08491882341F0909109
:10375000C00095FFFCCF8093C6003196F5CFF801ED
:103760008191882339F09091C00095FFFCCF809320
:10377000C600F6CF8091C00085FFFCCF8AE0809321
:10378000C600F701E258FD4F1082118212821382A7
:103790001CC09091C00095FFFCCF8093C60031966D
:1037A00084918111F6CFF8018191882339F09091AD
:1037B000C00095FFFCCF8093C600F6CF8091C0007B
:1037C00085FFFCCF8EE28093C600C601D6DAAC96A8
:1037D0000FB6F894DEBF0FBECDBFDF91CF911F9122
:1037E0000F91FF90EF90DF90CF90BF90AF909F90A0
:1037F0008F907F906F905F904F903F900895CF9300
:10380000DF93EC018B81811103C0E3EDF1E039C05E
:10381000E3EEF1E08491882341F09091C00095FFA0
:10382000FCCF8093C6003196F5CFFE01E258FD4FE4
:1038300040815181628173812AE030E086E494E026
:103840000E9474298091C00085FFFCCF8FE2809395
:10385000C600C658DD4F488159816A817B812AE0C4
:1038600030E086E494E00E9474298091C00085FFD6
:10387000FCCF0EC09091C00095FFFCCF8093C60096
:10388000319684918111F6CF8091C00085FFFCCFE5
:103890008AE08093C600DF91CF910895AF92BF92E6
:1038A000CF92DF92EF92FF920F931F93CF93DF930C
:1038B0005C01EB01FB0101900020E9F78F01015051
:1038C0001109061B170B6C01F3E3CF1AFEEFDF0A99
:1038D000F60110826EE470E0CE010E94ACCF7C0154
:1038E000009729F4F8013197EC0FFD1F0DC060E23D
:1038F00070E00E94ACCFEC0121966AE270E0C70153
:103900000E94ACCFFC0131978DE081838AE08283F5
:103910001382BE01C50187539E4F0E94FC6AF601C7
:103920008081882309F1E1EFFCE08491882341F054
:103930009091C00095FFFCCF8093C6003196F5CFE3
:10394000EDEBF1E08491882341F09091C00095FF68
:10395000FCCF8093C6003196F5CF8091C00085FFE3
:10396000FCCF8AE08093C600DF91CF911F910F9129
:10397000FF90EF90DF90CF90BF90AF9008956F923F
:103980007F928F929F92AF92BF92CF92DF92EF92EF
:10399000FF920F931F93CF93DF93CDB7DEB7AA9714
:1039A0000FB6F894DEBF0FBECDBF8C018A579D4F76
:1039B0007C01611114C0FC018081882309F498C046
:1039C0000E94D6C4F801EE57FD4F80809180A280FE
:1039D000B380681979098A099B0997FF89C0F701A3
:1039E0001082F8018381811107C0C80154DCF801FD
:1039F0008381882309F47CC0F80186A58F9385A56F
:103A00008F9384EB91E09F938F937E01F1E2EF0E11
:103A1000F11CFF92EF920E94E4CF0F900F900F9055
:103A20000F900F900F90B12CF70101900020E9F753
:103A30003197EE19FF09BE1684F46701CB0CD11C37
:103A4000B7FCDA94F6018081992787FD90950E9452
:103A50002FCFF6018083B394E7CF4801F3E38F0EB5
:103A6000911C40E050E0BA01C4010E946F65612CD6
:103A7000CE0101965C0140E050E0B501C4010E9416
:103A8000B86418164CF5712CF50101900020E9F787
:103A90003197EA19FB097E1674F46501C70CD11C35
:103AA00077FCDA94F601808190E00E942FCFF60136
:103AB00080837394E9CF8A858E37E9F245E050E040
:103AC000B701C5010E94C7CF892BA9F6B701C8016C
:103AD000B5DC66246394CFCF611004C08FEF9FEFF5
:103AE000F80104C0F80185A596A5019696A785A7BB
:103AF000AA960FB6F894DEBF0FBECDBFDF91CF916F
:103B00001F910F91FF90EF90DF90CF90BF90AF90FB
:103B10009F908F907F906F9008950F931F93CF93F6
:103B2000DF93EC018C0103531E4FC8010E9408660D
:103B3000C8010E94526619821882DF91CF911F91AD
:103B40000F910895CF92DF92EF92FF920F931F9300
:103B5000CF93DF93CDB7DEB76F970FB6F894DEBF84
:103B60000FBECDBF8C016A017C018EE4E80EF11C12
:103B7000C801805B9F4FF70191838083E75CFD4F15
:103B800022E030E03183208332967183608340E00D
:103B900050E0BA0104960E946F65F701808191811F
:103BA0002BE1FC013496DE01159601900D922A95C9
:103BB000E1F7FC01828193819C838B838AEA93E005
:103BC0009A8389839601AE014F5F5F4F61EC73E08A
:103BD000C8015BD9CE010196D0D86F960FB6F89484
:103BE000DEBF0FBECDBFDF91CF911F910F91FF9030
:103BF000EF90DF90CF9008952F923F924F925F9277
:103C00006F927F928F929F92AF92BF92CF92DF92EC
:103C1000EF92FF920F931F93CF93DF93CDB7DEB751
:103C2000AC970FB6F894DEBF0FBECDBF8C016B0111
:103C3000342EFC018381882309F4CDC2E053FE4F6A
:103C40008081882309F4FAC0211103C0EBEEFCE067
:103C5000CDC07801F8E1EF1AFEEFFF0AF70180818D
:103C6000811103C0EBEEFCE035C0E1EFFCE0849194
:103C7000882341F09091C00095FFFCCF8093C6004F
:103C80003196F5CFECEFF2E08491882341F09091EA
:103C9000C00095FFFCCF8093C6003196F5CF4AE077
:103CA00050E061E070E086E494E00E944829809151
:103CB000C00085FFFCCF8AE08093C60083EF92E0CE
:103CC0000E94184388C29091C00095FFFCCF80935A
:103CD000C600319684918111F6CFEAEDF2E084912D
:103CE000882341F09091C00095FFFCCF8093C600DF
:103CF0003196F5CFF6018191882339F09091C0007B
:103D000095FFFCCF8093C600F6CFEFECF2E08491F4
:103D1000882341F09091C00095FFFCCF8093C600AE
:103D20003196F5CFF70180813DE8B32EB801B89EFA
:103D3000600D711D112463517E4FC801E2DBF70154
:103D40008081F801B89EE00DF11D1124E351FE4F72
:103D50008191882339F09091C00095FFFCCF80932A
:103D6000C600F6CFE9ECF2E08491882341F090910F
:103D7000C00095FFFCCF8093C6003196F5CF580167
:103D8000F2E8AF1AFDEFBF0AF5014081518162816F
:103D900073812AE030E086E494E00E9474298091E7
:103DA000C00085FFFCCF8AE08093C600F701208128
:103DB000F80184E0289FE00DF11D1124AF01475167
:103DC0005E4FF50180819181A281B381FA018083E8
:103DD0009183A283B3832F5FF701208329C0909141
:103DE000C00095FFFCCF8093C6003196849181116D
:103DF000F6CFE8EBF2E08491882341F09091C00087
:103E000095FFFCCF8093C6003196F5CFF6018191E6
:103E1000882339F09091C00095FFFCCF8093C600B5
:103E2000F6CF8091C00085FFFCCF8AE08093C6006A
:103E3000C80183539E4F0E94526630C0F801E8517A
:103E4000FE4F1082EBEEFCE08491882341F09091CC
:103E5000C00095FFFCCF8093C6003196F5CFE7EA0E
:103E6000F2E08491882341F09091C00095FFFCCF4F
:103E70008093C6003196F5CFF6018191882339F001
:103E80009091C00095FFFCCF8093C600F6CF809143
:103E9000C00085FFFCCF8AE08093C600F801128243
:103EA000CE0101965C010E94B31628019EE4490EE2
:103EB000511CC8018F96F20191838083F6018081A5
:103EC0008F3209F077C07601FFEFEF1AFF0A2AE080
:103ED000222EE114F10409F473C06FE270E0C7010F
:103EE0000E94ACCF4C01009709F46BC0E816F906AC
:103EF00008F067C03C016E187F08A301B701CE012E
:103F000080960E94D5CFE0E2F0E0EC0FFD1FE60DB9
:103F1000F71D1082FE01B0968191882339F09091AF
:103F2000C00095FFFCCF8093C600F6CF8091C00003
:103F300085FFFCCF2092C600F2016081718161157E
:103F4000710519F06C5F7F4F02C060E070E021E006
:103F5000AE01405E5F4FCE0105960E944968811117
:103F600021C0E3E9F2E08491882341F09091C00000
:103F700095FFFCCF8093C6003196F5CFFE01B09639
:103F80008191882339F09091C00095FFFCCF8093F8
:103F9000C600F6CF8091C00085FFFCCF8EE28093F3
:103FA000C60016C1F201B182A0827401FFEFEF1AC0
:103FB000FF0A8FCFC801805B9F4FF20191838083FE
:103FC0007601C80183539E4F4C01F20160817181DB
:103FD000332009F4A3C06115710519F06C5F7F4FA0
:103FE00002C060E070E021E0A701C4010E944968BE
:103FF000811103C0EBE5F2E075C0980126583D4FF2
:10400000F40181899289A389B489F901808391831C
:10401000A283B383E5E8F2E08491882341F0909194
:10402000C00095FFFCCF8093C6003196F5CFF70115
:104030008191882339F09091C00095FFFCCF809347
:10404000C600F6CFEDE7F2E08491882341F090912D
:10405000C00095FFFCCF8093C6003196F5CFF901E3
:1040600040815181628173812AE030E086E494E0EE
:104070000E9474298091C00085FFFCCF8AE0809364
:10408000C600F801E258FD4F10821182128213829D
:10409000EFE6F2E08491882341F09091C00095FF13
:1040A000FCCF8093C6003196F5CF8091C00085FF8C
:1040B000FCCF8AE08093C600A70160E070E0C801F1
:1040C00041DDF8018289882319F0C801429601C0B8
:1040D000C70160E07BC09091C00095FFFCCF80934A
:1040E000C600319684918111F6CFF7018191882322
:1040F00039F09091C00095FFFCCF8093C600F6CFB9
:10410000E8E5F2E08491882309F462C09091C00050
:1041100095FFFCCF8093C6003196F4CF61157105F1
:1041200019F06C5F7F4F02C060E070E026E5A701E8
:10413000C4010E944968811125C0E4E4F2E0849141
:10414000882341F09091C00095FFFCCF8093C6007A
:104150003196F5CFF7018191882339F09091C00015
:1041600095FFFCCF8093C600F6CFE1E4F2E08491A6
:10417000882371F19091C00095FFFCCF8093C60019
:104180003196F5CF81E0F8018083EFE2F2E084918F
:10419000882341F09091C00095FFFCCF8093C6002A
:1041A0003196F5CFF6018191882339F09091C000C6
:1041B00095FFFCCF8093C600F6CF8091C00085FFAD
:1041C000FCCF8AE08093C60060E0C7010E941F997F
:1041D000C5010E94BD16AC960FB6F894DEBF0FBEA7
:1041E000CDBFDF91CF911F910F91FF90EF90DF90A6
:1041F000CF90BF90AF909F908F907F906F905F9087
:104200004F903F902F90089521E0FC01218320E002
:1042100040E0F2CCCF92DF92EF92FF920F931F9388
:10422000CF93DF93CDB7DEB76F970FB6F894DEBFAD
:104230000FBECDBF8C016C012EE4C20ED11C805B81
:104240009F4FF60191838083E75CFD4F21E030E0D2
:10425000318320837801F7E7EF1AFDEFFF0AF701BA
:104260001182108240E050E0BA0104960E946F650E
:10427000F601808191812BE1FC013496DE011596D7
:1042800001900D922A95E1F7FC01828193819C8334
:104290008B838AEA93E09A83898320E030E0AE0141
:1042A0004F5F5F4F61EC73E0C8010E944517CE017C
:1042B00001960E94BD16F701808191816F960FB61D
:1042C000F894DEBF0FBECDBFDF91CF911F910F914C
:1042D000FF90EF90DF90CF900895AF92BF92CF9272
:1042E000DF92EF92FF920F931F93CF93DF93CDB79F
:1042F000DEB76F970FB6F894DEBF0FBECDBF8C014F
:104300005B01CE0101960E94B316F801E95AFF4FF6
:1043100080817801811104C02FE2E20EF11C03C0FC
:1043200030E5E30EF11C670144E0C40ED11C21E02E
:10433000A501B601CE0105960E94496881112DC0E4
:10434000EBEEFCE08491882341F09091C00095FF52
:10435000FCCF8093C6003196F5CFEEE9F1E0849171
:10436000882341F09091C00095FFFCCF8093C60058
:104370003196F5CFF5018191882339F09091C000F5
:1043800095FFFCCF8093C600F6CF8091C00085FFDB
:10439000FCCF8AE08093C60030C0F801EB55FE4F99
:1043A00080818A30D0F491E0980F9083F8012FE15A
:1043B000829FE00DF11D1124CF0181599F4F2BE108
:1043C000F601DC01149601900D922A95E1F7F701B0
:1043D00022813381FC0133832283005B1F4F8BE1F9
:1043E000FE013596D801149601900D928A95E1F759
:1043F0008B819C81F80193838283CE0101960E9478
:10440000BD166F960FB6F894DEBF0FBECDBFDF911D
:10441000CF911F910F91FF90EF90DF90CF90BF90C1
:10442000AF900895CF93DF93FC01EB55FE4F2081B1
:104430002223D1F021502083EC013FE1239FC00DC6
:10444000D11D1124C159DF4F805B9F4F2BE1FE012D
:104450003496DC01149601900D922A95E1F72A8199
:104460003B81FC0133832283DF91CF910895EF924A
:10447000FF920F931F93CF93DF93EC010E9421785B
:104480008E0108511E4FF80180819E0123533E4F3B
:1044900079018823A1F1C9010E945266F801808147
:1044A00081508083BE01FDE88F9F600D711D112436
:1044B00063517E4F21E041E0CE019EDBF801808117
:1044C000FE0124E0829FE00DF11D1124E751FE4F13
:1044D0004081518162817381FE01E258FD4F40832A
:1044E000518362837383C7010E946F65CE01DF91A0
:1044F000CF911F910F91FF90EF900C94751AC90105
:104500000E9452661A8282E991E00E948A2B809171
:104510000A0F882349F110920A0F0091550510E007
:10452000E801CC0FDD1FCA5DDC4E688179818827E8
:1045300077FD8095982F0E94F2C820913402309127
:10454000350240913602509137020E9453CA181624
:104550005CF419821882C801DF91CF911F910F91ED
:10456000FF90EF900C94C57DDF91CF911F910F913B
:10457000FF90EF900895AF92BF92DF92EF92FF927B
:104580000F931F93CF93DF93CDB7DEB7E0970FB6AE
:10459000F894DEBF0FBECDBF80E1E1EBF2E0DE01BB
:1045A000919601900D928A95E1F780E1E1ECF2E0BD
:1045B000DE01519601900D928A95E1F780E1E1EDDF
:1045C000F2E0DE01119601900D928A95E1F77E01ED
:1045D00081E2E80EF11C0BE41FE0BE016F5E7F4F2D
:1045E0004BE55FE09E012F5F3F4F9BE3A92E9FE0CD
:1045F000B92ED12CF70181919191A191B1917F01B7
:10460000F80181939193A193B1938F01FB01819163
:104610009191A191B191BF01FA0181939193A193DD
:10462000B193AF01F90181919191A191B1919F0154
:10463000F50181939193A193B1935F01D394F4E039
:10464000DF12D8CF0E94965F80E090E0AAEFB4E43A
:104650008093330F9093340FA093350FB093360FA0
:1046600080E090E8ABE3B5E480932F0F9093300F98
:10467000A093310FB093320F80932B0F90932C0F98
:10468000A0932D0FB0932E0F1092370F1092380F6A
:104690001092390F10923A0F80E29EE4A0E0B0E051
:1046A00080936B0F90936C0FA0936D0FB0936E0F70
:1046B00010921B0F10921C0F10921D0F10921E0FC4
:1046C00080E090E0A0E4B1E48093270F9093280F5E
:1046D000A093290FB0932A0F8DEC9CECACECBEE3B9
:1046E0008093230F9093240FA093250FB093260F50
:1046F00080E090E0A0EAB0E480931F0F9093200F39
:10470000A093210FB093220F10926E0510926F05A7
:10471000109270051092710510926A0510926B0547
:1047200010926C0510926D05109266051092670547
:10473000109268051092690584EB90E09093F8154B
:104740008093F71586E490E09093F6158093F51525
:104750001092F4151092F31580EF90E09093F215FB
:104760008093F1158EE690E09093F0158093EF150D
:104770001092EE151092ED158AE999E9A1EBB1E4DA
:104780008093570290935802A0935902B0935A0213
:1047900061E77DE38AE89FE30E94C4866093530249
:1047A00070935402809355029093560260E070E03B
:1047B00084EE92E40E94D08660934F027093500280
:1047C000809351029093520280E090E0A8ECB2E412
:1047D00080934B0290934C02A0934D02B0934E02F3
:1047E00084E190E090930C0280930B020E94957AF2
:1047F00010927E0580E090E0A0E4B0E48093230274
:1048000090932402A0932502B09326020E94D149DE
:10481000EBEEFCE08491882341F09091C00095FF7D
:10482000FCCF8093C6003196F5CFE2ECF5E08491A1
:10483000882341F09091C00095FFFCCF8093C60083
:104840003196F5CF8091C00085FFFCCF8AE0809340
:10485000C600E0960FB6F894DEBF0FBECDBFDF9165
:10486000CF911F910F91FF90EF90DF90BF90AF908D
:104870000895CF93C82F882369F140914B0F509131
:104880004C0F60914D0F70914E0F8AEA95E03BD628
:1048900040914F0F5091500F6091510F7091520FF6
:1048A00087EA95E030D64091530F5091540F6091B4
:1048B000550F7091560F84EA95E025D64091570F19
:1048C0005091580F6091590F70915A0F81EA95E0FD
:1048D0001AD62FC0EBEEFCE08491882341F0909132
:1048E000C00095FFFCCF8093C6003196F5CFE2EB78
:1048F000F5E08491882341F09091C00095FFFCCFB2
:104900008093C6003196F5CF8091C00085FFFCCF23
:104910008AE08093C600EBEEFCE08491882309F4E2
:10492000ACCF9091C00095FFFCCF8093C60031962C
:10493000F4CF8091C00085FFFCCF8AE08093C60051
:10494000CC2369F140915B0F50915C0F60915D0F3A
:1049500070915E0F8EE795E0D6D540915F0F509134
:10496000600F6091610F7091620F8BE795E0CBD57E
:104970004091630F5091640F6091650F7091660FC5
:1049800088E795E0C0D54091670F5091680F60911E
:10499000690F70916A0F85E795E0B5D52FC0EBEEF2
:1049A000FCE08491882341F09091C00095FFFCCFFA
:1049B0008093C6003196F5CFE7E8F5E0849188232F
:1049C00041F09091C00095FFFCCF8093C6003196D6
:1049D000F5CF8091C00085FFFCCF8AE08093C600B0
:1049E000EBEEFCE08491882309F4ACCF9091C000F9
:1049F00095FFFCCF8093C6003196F4CF8091C00024
:104A000085FFFCCF8AE08093C600CC2369F14091FA
:104A10003B0F50913C0F60913D0F70913E0F8EE423
:104A200095E082D540913F0F5091400F6091410F2A
:104A30007091420F8BE495E077D54091430F5091F0
:104A4000440F6091450F7091460F88E495E06CD556
:104A50004091470F5091480F6091490F70914A0F54
:104A600085E495E061D52FC0EBEEFCE084918823CE
:104A700041F09091C00095FFFCCF8093C600319625
:104A8000F5CFE7E5F5E08491882341F09091C000EF
:104A900095FFFCCF8093C6003196F5CF8091C00082
:104AA00085FFFCCF8AE08093C600EBEEFCE08491AA
:104AB000882309F4ACCF9091C00095FFFCCF809380
:104AC000C6003196F4CF8091C00085FFFCCF8AE00C
:104AD0008093C600CC2311F14091330F5091340FD5
:104AE0006091350F7091360F8AE095E00CD54091BA
:104AF0002F0F5091300F6091310F7091320F87E07E
:104B000095E001D540912B0F50912C0F60912D0F06
:104B100070912E0F84E095E0F6D42FC0EBEEFCE010
:104B20008491882341F09091C00095FFFCCF809341
:104B3000C6003196F5CFE3E1F5E08491882341F09A
:104B40009091C00095FFFCCF8093C6003196F5CFC1
:104B50008091C00085FFFCCF8AE08093C600EBEE19
:104B6000FCE08491882309F4B7CF9091C00095FFB1
:104B7000FCCF8093C6003196F4CF8091C00085FFB2
:104B8000FCCF8AE08093C600CC2309F443C0409157
:104B9000370F5091380F6091390F70913A0F88E4B8
:104BA00094E0B1D440911B0F50911C0F60911D0FE8
:104BB00070911E0F85E494E0A6D440916B0F509144
:104BC0006C0F60916D0F70916E0F82E494E0ACD425
:104BD0004091270F5091280F6091290F70912A0F53
:104BE0008FE394E090D44091230F5091240F609173
:104BF000250F7091260F8CE394E085D440911F0F10
:104C00005091200F6091210F7091220F89E394E061
:104C10007AD42FC0EBEEFCE08491882341F0909190
:104C2000C00095FFFCCF8093C6003196F5CFE1E53B
:104C3000F4E08491882341F09091C00095FFFCCF6F
:104C40008093C6003196F5CF8091C00085FFFCCFE0
:104C50008AE08093C600EBEEFCE08491882309F49F
:104C600096CF9091C00095FFFCCF8093C6003196FF
:104C7000F4CF8091C00085FFFCCF8AE08093C6000E
:104C8000CC2311F14091660550916705609168054C
:104C9000709169058EE194E036D440916A05509197
:104CA0006B0560916C0570916D058BE194E02BD4E0
:104CB00040916E0550916F0560917005709171057E
:104CC00088E194E020D42FC0EBEEFCE084918823AF
:104CD00041F09091C00095FFFCCF8093C6003196C3
:104CE000F5CFE7E2F4E08491882341F09091C00091
:104CF00095FFFCCF8093C6003196F5CF8091C00020
:104D000085FFFCCF8AE08093C600EBEEFCE0849147
:104D1000882309F4B7CF9091C00095FFFCCF809312
:104D2000C6003196F4CF8091C00085FFFCCF8AE0A9
:104D30008093C600CC23B1F06091F7157091F815FF
:104D400080EF93E0CFD36091F5157091F6158DEE5D
:104D500093E0C8D36091F3157091F4158AEE93E057
:104D6000C1D32FC0EBEEFCE08491882341F09091F9
:104D7000C00095FFFCCF8093C6003196F5CFECEFD5
:104D8000F3E08491882341F09091C00095FFFCCF1F
:104D90008093C6003196F5CF8091C00085FFFCCF8F
:104DA0008AE08093C600EBEEFCE08491882309F44E
:104DB000C3CF9091C00095FFFCCF8093C600319681
:104DC000F4CF8091C00085FFFCCF8AE08093C600BD
:104DD000CC23B1F06091F1157091F2158EED93E056
:104DE00081D36091EF157091F0158BED93E07AD33C
:104DF0006091ED157091EE1588ED93E073D30DC0C1
:104E0000EBEEFCE08491882329F39091C00095FF9C
:104E1000FCCF8093C6003196F5CF8091C00085FF0E
:104E2000FCCF8AE08093C600CC2309F43CC04091BB
:104E30005702509158026091590270915A0281ECC8
:104E400093E061D3609153027091540280915502B6
:104E5000909156020E94CA86AB01BC018EEB93E092
:104E600052D360914F027091500280915102909103
:104E700052020E94D686AB01BC018BEB93E043D378
:104E800040914B0250914C0260914D0270914E0244
:104E900088EB93E038D360910B0270910C0285EBA4
:104EA00093E020D32FC0EBEEFCE08491882341F007
:104EB0009091C00095FFFCCF8093C6003196F5CF4E
:104EC000EAECF3E08491882341F09091C00095FFD3
:104ED000FCCF8093C6003196F5CF8091C00085FF4E
:104EE000FCCF8AE08093C600EBEEFCE0849188233F
:104EF00009F49DCF9091C00095FFFCCF8093C60030
:104F00003196F4CF8091C00085FFFCCF8AE080937A
:104F1000C600CC2361F0409123025091240260919D
:104F20002502709126028FE893E0EDD245C0EBEEAA
:104F3000FCE08491882341F09091C00095FFFCCF64
:104F40008093C6003196F5CFE2EAF3E0849188239E
:104F500041F09091C00095FFFCCF8093C600319640
:104F6000F5CF80917E05811103C0E8E9F3E00CC024
:104F70008091C00085FFFCCF0EC09091C00095FFCE
:104F8000FCCF8093C600319684918111F6CF809139
:104F9000C00085FFFCCF8AE08093C600EBEEFCE00A
:104FA0008491882309F4B7CF9091C00095FFFCCF7E
:104FB0008093C6003196F4CF8091C00085FFFCCF6E
:104FC0008AE08093C60080917E05811123C0C111C3
:104FD0000DC0EBEEFCE007C09091C00095FFFCCF48
:104FE0008093C600319684918111F6CFE5E8F3E015
:104FF00007C09091C00095FFFCCF8093C60031960A
:1050000084918111F6CF8091C00085FFFCCF8AE0AA
:105010008093C600CF9108951F920F920FB60F9202
:1050200011240BB60F922F933F938F939F93EF937F
:10503000FF932091C6009FB7F894E091C70481E0E8
:105040008E0F8F773091C804831731F0F0E0E95B61
:10505000FB4F20838093C7049FBFFF91EF919F91E7
:105060008F913F912F910F900BBE0F900FBE0F901D
:105070001F9018959A01AB01211581EE3807410563
:10508000510549F182E08093C00060E079E08DE352
:1050900090E00E9443CC2150310941095109CA01D5
:1050A000B90122E030E040E050E00E9443CC309370
:1050B000C5002093C4008091C10080618093C1002D
:1050C0008091C10088608093C1008091C100806898
:1050D0008093C10008951092C00020E130E0E7CF36
:1050E0003FB7F8942091C8048091C704821759F003
:1050F000E22FF0E0E95BFB4F808190E02F5F2F779C
:105100002093C80402C08FEF9FEF3FBF08958FB771
:10511000F8949091C8049093C7048FBF08954F925C
:105120005F926F927F928F929F92AF92BF92CF9237
:10513000DF92EF92FF920F931F93CF93DF93CDB740
:10514000DEB7A0970FB6F894DEBF0FBECDBF5C01EF
:105150004115510561057105E9F420E030E040E3B7
:1051600050E060E070E0A0960FB6F894DEBF0FBE8E
:10517000CDBFDF91CF911F910F91FF90EF90DF9006
:10518000CF90BF90AF909F908F907F906F905F90E7
:105190004F905BC08E010F5F1F4FC12CD12C760149
:1051A0004801422E512C612C712C8FEFC81AD80A5D
:1051B000E80AF80ACB01BA01A30192010E9421CCAE
:1051C000CA01F80161938F01A901BC014115510584
:1051D0006105710551F7F1E0CF1AD108E108F10836
:1051E000F401EC0DFD1D80818A3010F440E301C014
:1051F00047E3480F552747FD5095652F752F20E051
:1052000030E0C50122D081E0C81AD108E108F108D8
:10521000EFEFCE16DE06EE06FE0611F7A0960FB6ED
:10522000F894DEBF0FBECDBFDF91CF911F910F91DC
:10523000FF90EF90DF90CF90BF90AF909F908F90B6
:105240007F906F905F904F9008952115310539F44C
:105250008091C00085FFFCCF4093C60008952A309E
:10526000310509F41CC05BCFCF93DF93EC0120E044
:1052700030E04DE050E060E070E0E7DF20E030E05B
:105280004AE050E060E070E0CE01DF91CF91DDCFE9
:105290009A01AB01662757FD6095762FD6CFCF9246
:1052A000DF92EF92FF92CF93DF93EC016A017B01D3
:1052B00077FF0FC020E030E04DE250E060E070E0AA
:1052C000C4DFF094E094D094C094C11CD11CE11CC4
:1052D000F11C2AE0B701A601CE01DF91CF91FF902A
:1052E000EF90DF90CF901BCF2115310539F48091DD
:1052F000C00085FFFCCF4093C600089510CF9A01EF
:10530000462F50E060E070E0EFCFCF93DF93EC01E9
:105310009A01AB0160E070E0E7DFCE01DF91CF9151
:10532000A3CF8F929F92AF92BF92CF92DF92EF92D4
:10533000FF921F93CF93DF93EC016A017B01122F41
:1053400020E030E0A901C701B6010E9450C887FFE4
:105350000CC020E030E04DE250E060E070E0CE01B3
:1053600074DFF7FAF094F7F8F094B12C60E070E095
:1053700080E09FE3B11641F020E030E040E251E4EC
:105380000E9457C8B394F6CF9B01AC01C701B60188
:105390000E9477C76B017C010E94C4C84B015C016D
:1053A0000E94F0C89B01AC01C701B6010E9476C7FC
:1053B0006B017C012AE0B501A401CE01B0DE11230E
:1053C00041F020E030E04EE250E060E070E0CE01DD
:1053D0003CDF112319F120E030E040E251E4C70145
:1053E000B6010E9425CB6B017C010E94BFC84B0116
:1053F000AA2497FCA094BA2CB501A401CE014FDFDA
:10540000C501B4010E94F2C89B01AC01C701B601FD
:105410000E9476C76B017C011150DBCFDF91CF91E9
:105420001F91FF90EF90DF90CF90BF90AF909F9033
:105430008F90089576CFFC01659175918591949137
:105440000895CF92DF92EF92FF920F931F93CF9325
:10545000DF93EC01CC0FDD1FCC0FDD1FFE01EA59FD
:10546000FA4FDE01AE58BA4F2D913D914D915C91AE
:1054700060817181828193810E9477C76B017C0179
:10548000CE018152934FD7DF8E01065A1A4FA701E2
:1054900096010E9477C7F8016083718382839383AA
:1054A000CE018D52934FC7DFCD5EDD4FA701960130
:1054B0000E9477C7688379838A839B83DF91CF912A
:1054C0001F910F91FF90EF90DF90CF9008950E9471
:1054D000D6C46093490570934A0580934B05909319
:1054E0004C050895FC012491222341F03091C00025
:1054F00035FFFCCF2093C6000196F4CF4AE050E080
:1055000086E494E0C5CEFC012491222341F0309141
:10551000C00035FFFCCF2093C6000196F4CF22E0F7
:1055200030E086E494E086CFFC012491222341F010
:105530003091C00035FFFCCF2093C6000196F4CF18
:105540002AE030E086E494E0CFCE20910707309146
:105550000807F901EC5CFA4F8083C901019664E009
:1055600070E00E940ECC909308078093070780910B
:10557000050790910607019690930607809305070B
:105580000895CF93FC01C62F80818B33D9F02091F1
:1055900005073091060724303105A4F44091070730
:1055A0005091080780E6849F9001859F300D11245B
:1055B000BF01C9018B579A4F0E94C0CF8C2FC5DF06
:1055C00081E001C080E0CF910895CF93DF93D82F81
:1055D000C92FD7DF882309F43CC0EBEEFCE08491AF
:1055E000882341F09091C00095FFFCCF8093C600C6
:1055F0003196F5CFEFE9FCE08491882341F090915A
:10560000C00095FFFCCF8093C6003196F5CFED2FFB
:10561000FC2F8191882339F09091C00095FFFCCF39
:105620008093C600F6CFEDE9FCE08491882341F039
:105630009091C00095FFFCCF8093C6003196F5CFC6
:105640008091C00085FFFCCF8AE08093C60081E096
:1056500001C080E0DF91CF910895DF92EF92FF9239
:105660000F931F93CF93DF93CDB7DEB76E970FB62F
:10567000F894DEBF0FBECDBF60914D0570914E0511
:105680006115710559F14DE150E08E010F5F1F4F1B
:10569000C8010E944FCF1E8EF8017F01E01AF10A67
:1056A000D190DD2019F08AE0D812F7CFF801EE0D85
:1056B000FF1D108260E0C80188DF882379F0DD20BB
:1056C000B1F08FEFE81AF80A80914D0590914E05E0
:1056D0008E0D9F1D90934E0580934D0581E0209186
:1056E0004D0530914E05232B39F480E005C0109212
:1056F0004E0510924D05F2CF6E960FB6F894DEBFB0
:105700000FBECDBFDF91CF911F910F91FF90EF9012
:10571000DF90089590934E0580934D059ECFEAE06B
:10572000F1E08081877F80839FB7F894EBE0F1E020
:105730008081886080839FBF0895EAE0F1E08081E6
:10574000806180839FB7F894EBE0F1E08081806115
:1057500080839FBF0895E3DFF0DF40E950ED63E011
:1057600070E086E494E086DCE7E9FCE0849188233D
:1057700041F09091C00095FFFCCF8093C600319618
:10578000F5CF8091C00085FFFCCF8AE08093C600F2
:10579000EBEEFCE08491882341F09091C00095FFEE
:1057A000FCCF8093C6003196F5CF84B780FF14C03C
:1057B000EFE8FCE09491992341F02091C00025FF8F
:1057C000FCCF9093C6003196F5CF9091C00095FF25
:1057D000FCCF9AE09093C60081FF14C0EFE7FCE095
:1057E0009491992341F02091C00025FFFCCF909324
:1057F000C6003196F5CF9091C00095FFFCCF9AE09E
:105800009093C60082FF14C0EEE6FCE094919923C9
:1058100041F02091C00025FFFCCF9093C600319647
:10582000F5CF9091C00095FFFCCF9AE09093C60011
:1058300083FF14C0EEE5FCE09491992341F02091A0
:10584000C00025FFFCCF9093C6003196F5CF909114
:10585000C00095FFFCCF9AE09093C60085FF14C06E
:10586000EEE4FCE08491882341F09091C00095FF24
:10587000FCCF8093C6003196F5CF8091C00085FFA4
:10588000FCCF8AE08093C60014BEE7E4FCE084917C
:10589000882341F09091C00095FFFCCF8093C60013
:1058A0003196F5CFECE3FCE08491882341F09091B0
:1058B000C00095FFFCCF8093C6003196F5CF809154
:1058C000C00085FFFCCF8AE08093C600EBEEFCE0D1
:1058D0008491882341F09091C00095FFFCCF809384
:1058E000C6003196F5CFECE2FCE08491882341F0CC
:1058F0009091C00095FFFCCF8093C6003196F5CF04
:10590000EBE1FCE08491882341F09091C00095FF89
:10591000FCCF8093C6003196F5CFEFE0FCE0849198
:10592000882341F09091C00095FFFCCF8093C60082
:105930003196F5CFE7EFFBE08491882341F0909119
:10594000C00095FFFCCF8093C6003196F5CF8091C3
:10595000C00085FFFCCF8AE08093C600ECEEFBE040
:105960008491882341F09091C00095FFFCCF8093F3
:10597000C6003196F5CFE0EEFBE08491882341F03C
:105980009091C00095FFFCCF8093C6003196F5CF73
:105990008091C00085FFFCCF8AE08093C600EBEECB
:1059A000FCE08491882341F09091C00095FFFCCFEA
:1059B0008093C6003196F5CFE1EDFBE0849188231A
:1059C00041F09091C00095FFFCCF8093C6003196C6
:1059D000F5CF0E94D46A4AE050E0BC0186E494E02E
:1059E00057DCEAEBFBE08491882341F09091C00002
:1059F00095FFFCCF8093C6003196F5CF4AE050E08A
:105A000060E175E086E494E043DC8091C00085FFAE
:105A1000FCCF8AE08093C60081E0809334058093B8
:105A2000350580933605809337050E94BB2280E0C0
:105A30000E9439240E94BD9B0E94107D0E94015348
:105A40000E94B1BC0C9490772F923F924F925F923C
:105A50006F927F928F929F92AF92BF92CF92DF927E
:105A6000EF92FF920F931F93CF93DF93CDB7DEB7E3
:105A7000A0970FB6F894DEBF0FBECDBF809144074C
:105A8000882309F42FC18091050790910607892B7F
:105A900011F41092CC0421E028A34091C009509148
:105AA000C1096091C2097091C3098091BC099091AC
:105AB000BD09A091BE09B091BF09481759076A07EF
:105AC0007B0708F418A200E010E09CE3C92ED12C5B
:105AD000E12CF12C20E1222E2EE0322E412C512CF3
